:020000040800F2
:100000006006002099010008A1010008A301000872
:10001000A5010008A7010008A901000800000000D0
:10002000000000000000000000000000AB0100081C
:10003000AD01000800000000AF010008B101000898
:10004000B3010008B3010008B3010008B3010008C0
:10005000B3010008B3010008B3010008B3010008B0
:10006000B3010008B3010008B3010008B3010008A0
:10007000B3010008B3010008B3010008B301000890
:10008000B3010008B3010008B3010008B301000880
:10009000B3010008B3010008B3010008B301000870
:1000A000B3010008B3010008B3010008B301000860
:1000B000B3010008B3010008B3010008B301000850
:1000C000B3010008B3010008B3010008B301000840
:1000D000B3010008B3010008B3010008B301000830
:1000E000B3010008B3010008B301000800F002F8F2
:1000F00000F042F814A696E8000CB244B344DA4586
:1001000001D100F039F8BAE80F000FA696E83000E8
:10011000A5EB040504EB0607AAEB0704A7F101070A
:100120004FEA15154FEA3414A4F10104AC4201D38F
:1001300000F022F813F0010F18BFFB1A43F001037F
:1001400000F001F8DBE71847C4070000D4070000FF
:10015000704700000023002400250026103A28BF25
:1001600078C1FBD8520728BF30C148BF0B60704729
:100170001FB51FBD10B510BD00F031F81146FFF7D7
:10018000F7FF00F02FFA00F04FF803B4FFF7F2FF8B
:1001900003BC00F057F800000948804709480047B1
:1001A000FEE7FEE7FEE7FEE7FEE7FEE7FEE7FEE727
:1001B000FEE7FEE704480549054A064B7047000084
:1001C000D9030008ED000008600000206006002050
:1001D000600200206002002070477047704775463B
:1001E00000F02CF8AE4605006946534620F00700A3
:1001F000854618B020B5FFF7DDFFBDE820404FF081
:1002000000064FF000074FF000084FF0000BAC461F
:10021000ACE8C009ACE8C009ACE8C009ACE8C0096A
:1002200021F007018D46704710B50446AFF30080FA
:100230002046BDE81040FFF7A8BF00000048704707
:100240000000002001491820ABBEFEE72600020096
:10025000704700004EF21401CEF2000141F640104A
:10026000C0F2010008604EF21801CEF20001002039
:100270000860FFE74EF21000CEF200000068C003F5
:10028000002801D4FFE7F5E77047000080B582B091
:100290000190FFE7019838B1FFE7FFF7DBFFFFE7C9
:1002A000019801380190F5E702B080BD80B500F0FB
:1002B00001F880BD84B000200390029041F200015B
:1002C000C4F20201086840F480300860FFE741F2A0
:1002D0000000C4F20200006800F4003002900398AD
:1002E00001300390FFE702990020019039B9FFE740
:1002F0000398B0F5A06018BF01200190FFE70198B6
:10030000C0070028E3D1FFE741F20000C4F2020079
:1003100000688003002803D5FFE70120029002E077
:1003200000200290FFE70298012851D1FFE742F236
:100330000001C4F20201086840F01000086008687B
:1003400020F007000860086840F00200086041F2F1
:100350000401C4F20201009108680860086808609E
:10036000086840F480600860086820F47C10086029
:10037000086840F4E810086041F20001C4F202018C
:10038000086840F080700860FFE741F20000C4F2A6
:10039000020000688001002801D4FFE7F5E741F280
:1003A0000401C4F20201086820F003000860086834
:1003B00040F002000860FFE741F20400C4F20200CE
:1003C000006800F00C00082801D0FFE7F4E700E027
:1003D000FFE704B07047000080B541F20002C4F2AC
:1003E0000202106840F00100106041F20401C4F202
:1003F000020108680023CFF6FF0318400860106868
:100400004FF6FF73CFF6F66318401060106820F4C3
:1004100080201060086820F4FE00086041F20801A6
:10042000C4F202014FF41F000860FFF73FFF4EF6D1
:100430000851CEF200014FF00060086080BD00005E
:1004400084B0ADF80E00ADF80C10ADF80A20032012
:100450000090BDF80E00012809D1FFE7009940F691
:100460000000C4F2010000EB810001901DE0BDF826
:100470000E00022809D1FFE7009940F60040C4F2BF
:10048000010000EB810001900EE0BDF80E00032892
:1004900009D1FFE7009941F20000C4F2010000EB2E
:1004A00081000190FFE7FFE7FFE7BDF80A0058B1C0
:1004B000FFE7BDF80A00BDF80C1000FA01F201993F
:1004C00008681043086009E0BDF80C10012000FA2C
:1004D00001F20199086890430860FFE704B0704793
:1004E00084B0ADF80E00ADF80C10ADF80A20ADF8F0
:1004F0000830BDF80C00ADF802000020ADF8000097
:10050000BDF80C00082809DBFFE7BDF80200083839
:10051000ADF802000120ADF80000FFE7BDF80E00C5
:10052000012812D1FFE741F21801C4F20201086864
:1005300040F004000860BDF8001040F60000C4F26E
:10054000010000EB810001902FE0BDF80E000228B1
:1005500012D1FFE741F21801C4F20201086840F02D
:1005600008000860BDF8001040F60040C4F2010029
:1005700000EB8100019017E0BDF80E00032812D1B6
:10058000FFE741F21801C4F20201086840F01000D0
:100590000860BDF8001041F20000C4F2010000EB59
:1005A00081000190FFE7FFE7FFE7BDF8020081004F
:1005B0000F2000FA01F20199086890430860BDF825
:1005C0000A00BDF802108A009040BDF808100232FF
:1005D000914040EA0102019908681043086004B0A4
:1005E0007047000080B584B00020039000F076F9D9
:1005F000012000F01FF8FFE73220FFF747FE01203F
:1006000002905721019100F01BF902986521009199
:1006100000F016F90099029800F012F90199029879
:1006200000F00EF9029840F60611C0F6000100F045
:10063000A3F8E1E780B58AB0ADF8260041F21801D1
:10064000C4F20201086840F001000860BDF826000D
:10065000012845D1FFE741F21801C4F20201086800
:1006600040F4805008600120089004210791032283
:10067000059200230493FFF733FF059A089805219C
:1006800002230693FFF72CFF049A069B0898062185
:10069000FFF726FF059A069B08980721FFF720FF22
:1006A0000799089A43F20003C4F20103188840F046
:1006B00004001880188840F03100188043F2040CC0
:1006C000C4F2010CBCF8000040F00400ACF80000DB
:1006D000188840F0400018801046FFF7B1FE49E04E
:1006E000BDF82600022844D1FFE741F21C01C4F204
:1006F0000201086840F480400860022002900C214A
:1007000003910322019200230093FFF7E9FE019A6F
:10071000029B0D211846FFF7E3FE009A029B0E2173
:100720001846FFF7DDFE019A029B0F211846FFF7DE
:10073000D7FE0298039943F60003C4F200031A8817
:1007400042F004021A801A8842F031021A8043F6FD
:10075000040CC4F2000CBCF8002042F00402ACF817
:1007600000201A8842F040021A800122FFF768FE3A
:10077000FFE7FFE70AB080BD80B584B0ADF80E009A
:10078000029100200190BDF80E00012828D1FFE75A
:10079000012004210022FFF753FEFFE70298019990
:1007A000405CB8B1FFE702980199405C43F20C014C
:1007B000C4F201010880FFE743F20800C4F201001F
:1007C00000880006002801D5FFE7F5E70198013011
:1007D0000190E3E7042101221046FFF731FE2DE0EE
:1007E000BDF80E00022828D1FFE702200C210022CC
:1007F000FFF726FEFFE702980199405CB8B1FFE7DA
:1008000002980199405C43F60C01C4F20001088093
:10081000FFE743F60800C4F2000000880006002845
:1008200001D5FFE7F5E7019801300190E3E70220E9
:100830000C210122FFF704FEFFE7FFE704B080BDB3
:1008400080B582B0ADF806008DF80510BDF8060041
:1008500001281DD1FFE7012004210022FFF7F0FD50
:100860009DF8050043F20C01C4F201010880FFE786
:1008700043F20800C4F2010000880006002801D5F8
:10088000FFE7F5E7042101221046FFF7D9FD22E03A
:10089000BDF8060002281DD1FFE702200C2100222E
:1008A000FFF7CEFD9DF8050043F60C01C4F20001F0
:1008B0000880FFE743F60800C4F200000088000645
:1008C000002801D5FFE7F5E702200C210122FFF700
:1008D000B7FDFFE7FFE702B080BD00004EF2100158
:1008E000CEF20001002008604EF21403CEF20003A5
:1008F0006FF07F421A604EF21802CEF200021060D2
:100900000520086070475765655700001C090008FE
:0C091000000000206006000054010008F8
:040000050800019955
:00000001FF
